{
  "_format": "hh-sol-artifact-1",
  "contractName": "CutePoopNFT",
  "sourceName": "contracts/cutepoop.sol",
  "abi": [
    {
      "inputs": [
        {
          "internalType": "string",
          "name": "_name",
          "type": "string"
        },
        {
          "internalType": "string",
          "name": "_symbol",
          "type": "string"
        },
        {
          "internalType": "string",
          "name": "_initBaseURI",
          "type": "string"
        },
        {
          "internalType": "string",
          "name": "_initNotRevealedURI",
          "type": "string"
        }
      ],
      "stateMutability": "nonpayable",
      "type": "constructor"
    },
    {
      "anonymous": false,
      "inputs": [
        {
          "indexed": true,
          "internalType": "address",
          "name": "owner",
          "type": "address"
        },
        {
          "indexed": true,
          "internalType": "address",
          "name": "approved",
          "type": "address"
        },
        {
          "indexed": true,
          "internalType": "uint256",
          "name": "tokenId",
          "type": "uint256"
        }
      ],
      "name": "Approval",
      "type": "event"
    },
    {
      "anonymous": false,
      "inputs": [
        {
          "indexed": true,
          "internalType": "address",
          "name": "owner",
          "type": "address"
        },
        {
          "indexed": true,
          "internalType": "address",
          "name": "operator",
          "type": "address"
        },
        {
          "indexed": false,
          "internalType": "bool",
          "name": "approved",
          "type": "bool"
        }
      ],
      "name": "ApprovalForAll",
      "type": "event"
    },
    {
      "anonymous": false,
      "inputs": [
        {
          "indexed": true,
          "internalType": "address",
          "name": "previousOwner",
          "type": "address"
        },
        {
          "indexed": true,
          "internalType": "address",
          "name": "newOwner",
          "type": "address"
        }
      ],
      "name": "OwnershipTransferred",
      "type": "event"
    },
    {
      "anonymous": false,
      "inputs": [
        {
          "indexed": true,
          "internalType": "address",
          "name": "from",
          "type": "address"
        },
        {
          "indexed": true,
          "internalType": "address",
          "name": "to",
          "type": "address"
        },
        {
          "indexed": true,
          "internalType": "uint256",
          "name": "tokenId",
          "type": "uint256"
        }
      ],
      "name": "Transfer",
      "type": "event"
    },
    {
      "inputs": [
        {
          "internalType": "address",
          "name": "to",
          "type": "address"
        },
        {
          "internalType": "uint256",
          "name": "tokenId",
          "type": "uint256"
        }
      ],
      "name": "approve",
      "outputs": [],
      "stateMutability": "nonpayable",
      "type": "function"
    },
    {
      "inputs": [
        {
          "internalType": "address",
          "name": "owner",
          "type": "address"
        }
      ],
      "name": "balanceOf",
      "outputs": [
        {
          "internalType": "uint256",
          "name": "",
          "type": "uint256"
        }
      ],
      "stateMutability": "view",
      "type": "function"
    },
    {
      "inputs": [],
      "name": "baseExtension",
      "outputs": [
        {
          "internalType": "string",
          "name": "",
          "type": "string"
        }
      ],
      "stateMutability": "view",
      "type": "function"
    },
    {
      "inputs": [],
      "name": "cost",
      "outputs": [
        {
          "internalType": "uint256",
          "name": "",
          "type": "uint256"
        }
      ],
      "stateMutability": "view",
      "type": "function"
    },
    {
      "inputs": [
        {
          "internalType": "uint256",
          "name": "tokenId",
          "type": "uint256"
        }
      ],
      "name": "getApproved",
      "outputs": [
        {
          "internalType": "address",
          "name": "",
          "type": "address"
        }
      ],
      "stateMutability": "view",
      "type": "function"
    },
    {
      "inputs": [
        {
          "internalType": "address",
          "name": "owner",
          "type": "address"
        },
        {
          "internalType": "address",
          "name": "operator",
          "type": "address"
        }
      ],
      "name": "isApprovedForAll",
      "outputs": [
        {
          "internalType": "bool",
          "name": "",
          "type": "bool"
        }
      ],
      "stateMutability": "view",
      "type": "function"
    },
    {
      "inputs": [],
      "name": "maxMintAmount",
      "outputs": [
        {
          "internalType": "uint256",
          "name": "",
          "type": "uint256"
        }
      ],
      "stateMutability": "view",
      "type": "function"
    },
    {
      "inputs": [],
      "name": "maxSupply",
      "outputs": [
        {
          "internalType": "uint256",
          "name": "",
          "type": "uint256"
        }
      ],
      "stateMutability": "view",
      "type": "function"
    },
    {
      "inputs": [
        {
          "internalType": "uint256",
          "name": "_mintAmount",
          "type": "uint256"
        }
      ],
      "name": "mintNFT",
      "outputs": [],
      "stateMutability": "payable",
      "type": "function"
    },
    {
      "inputs": [],
      "name": "name",
      "outputs": [
        {
          "internalType": "string",
          "name": "",
          "type": "string"
        }
      ],
      "stateMutability": "view",
      "type": "function"
    },
    {
      "inputs": [],
      "name": "notRevealedURI",
      "outputs": [
        {
          "internalType": "string",
          "name": "",
          "type": "string"
        }
      ],
      "stateMutability": "view",
      "type": "function"
    },
    {
      "inputs": [],
      "name": "owner",
      "outputs": [
        {
          "internalType": "address",
          "name": "",
          "type": "address"
        }
      ],
      "stateMutability": "view",
      "type": "function"
    },
    {
      "inputs": [
        {
          "internalType": "uint256",
          "name": "tokenId",
          "type": "uint256"
        }
      ],
      "name": "ownerOf",
      "outputs": [
        {
          "internalType": "address",
          "name": "",
          "type": "address"
        }
      ],
      "stateMutability": "view",
      "type": "function"
    },
    {
      "inputs": [],
      "name": "renounceOwnership",
      "outputs": [],
      "stateMutability": "nonpayable",
      "type": "function"
    },
    {
      "inputs": [],
      "name": "reveal",
      "outputs": [],
      "stateMutability": "nonpayable",
      "type": "function"
    },
    {
      "inputs": [],
      "name": "revealed",
      "outputs": [
        {
          "internalType": "bool",
          "name": "",
          "type": "bool"
        }
      ],
      "stateMutability": "view",
      "type": "function"
    },
    {
      "inputs": [
        {
          "internalType": "address",
          "name": "from",
          "type": "address"
        },
        {
          "internalType": "address",
          "name": "to",
          "type": "address"
        },
        {
          "internalType": "uint256",
          "name": "tokenId",
          "type": "uint256"
        }
      ],
      "name": "safeTransferFrom",
      "outputs": [],
      "stateMutability": "nonpayable",
      "type": "function"
    },
    {
      "inputs": [
        {
          "internalType": "address",
          "name": "from",
          "type": "address"
        },
        {
          "internalType": "address",
          "name": "to",
          "type": "address"
        },
        {
          "internalType": "uint256",
          "name": "tokenId",
          "type": "uint256"
        },
        {
          "internalType": "bytes",
          "name": "_data",
          "type": "bytes"
        }
      ],
      "name": "safeTransferFrom",
      "outputs": [],
      "stateMutability": "nonpayable",
      "type": "function"
    },
    {
      "inputs": [
        {
          "internalType": "address",
          "name": "operator",
          "type": "address"
        },
        {
          "internalType": "bool",
          "name": "approved",
          "type": "bool"
        }
      ],
      "name": "setApprovalForAll",
      "outputs": [],
      "stateMutability": "nonpayable",
      "type": "function"
    },
    {
      "inputs": [
        {
          "internalType": "string",
          "name": "_newBaseExtension",
          "type": "string"
        }
      ],
      "name": "setBaseExtension",
      "outputs": [],
      "stateMutability": "nonpayable",
      "type": "function"
    },
    {
      "inputs": [
        {
          "internalType": "string",
          "name": "_newBaseURI",
          "type": "string"
        }
      ],
      "name": "setBaseURI",
      "outputs": [],
      "stateMutability": "nonpayable",
      "type": "function"
    },
    {
      "inputs": [
        {
          "internalType": "uint256",
          "name": "_newCost",
          "type": "uint256"
        }
      ],
      "name": "setCost",
      "outputs": [],
      "stateMutability": "nonpayable",
      "type": "function"
    },
    {
      "inputs": [
        {
          "internalType": "string",
          "name": "_notRevealedURI",
          "type": "string"
        }
      ],
      "name": "setNotRevealedURI",
      "outputs": [],
      "stateMutability": "nonpayable",
      "type": "function"
    },
    {
      "inputs": [
        {
          "internalType": "uint256",
          "name": "_newmaxMintAmount",
          "type": "uint256"
        }
      ],
      "name": "setmaxMintAmount",
      "outputs": [],
      "stateMutability": "nonpayable",
      "type": "function"
    },
    {
      "inputs": [
        {
          "internalType": "bytes4",
          "name": "interfaceId",
          "type": "bytes4"
        }
      ],
      "name": "supportsInterface",
      "outputs": [
        {
          "internalType": "bool",
          "name": "",
          "type": "bool"
        }
      ],
      "stateMutability": "view",
      "type": "function"
    },
    {
      "inputs": [],
      "name": "symbol",
      "outputs": [
        {
          "internalType": "string",
          "name": "",
          "type": "string"
        }
      ],
      "stateMutability": "view",
      "type": "function"
    },
    {
      "inputs": [
        {
          "internalType": "uint256",
          "name": "index",
          "type": "uint256"
        }
      ],
      "name": "tokenByIndex",
      "outputs": [
        {
          "internalType": "uint256",
          "name": "",
          "type": "uint256"
        }
      ],
      "stateMutability": "view",
      "type": "function"
    },
    {
      "inputs": [
        {
          "internalType": "address",
          "name": "owner",
          "type": "address"
        },
        {
          "internalType": "uint256",
          "name": "index",
          "type": "uint256"
        }
      ],
      "name": "tokenOfOwnerByIndex",
      "outputs": [
        {
          "internalType": "uint256",
          "name": "",
          "type": "uint256"
        }
      ],
      "stateMutability": "view",
      "type": "function"
    },
    {
      "inputs": [
        {
          "internalType": "uint256",
          "name": "tokenId",
          "type": "uint256"
        }
      ],
      "name": "tokenURI",
      "outputs": [
        {
          "internalType": "string",
          "name": "",
          "type": "string"
        }
      ],
      "stateMutability": "view",
      "type": "function"
    },
    {
      "inputs": [],
      "name": "totalSupply",
      "outputs": [
        {
          "internalType": "uint256",
          "name": "",
          "type": "uint256"
        }
      ],
      "stateMutability": "view",
      "type": "function"
    },
    {
      "inputs": [
        {
          "internalType": "address",
          "name": "from",
          "type": "address"
        },
        {
          "internalType": "address",
          "name": "to",
          "type": "address"
        },
        {
          "internalType": "uint256",
          "name": "tokenId",
          "type": "uint256"
        }
      ],
      "name": "transferFrom",
      "outputs": [],
      "stateMutability": "nonpayable",
      "type": "function"
    },
    {
      "inputs": [
        {
          "internalType": "address",
          "name": "newOwner",
          "type": "address"
        }
      ],
      "name": "transferOwnership",
      "outputs": [],
      "stateMutability": "nonpayable",
      "type": "function"
    },
    {
      "inputs": [
        {
          "internalType": "address",
          "name": "_owner",
          "type": "address"
        }
      ],
      "name": "walletOfOwner",
      "outputs": [
        {
          "internalType": "uint256[]",
          "name": "",
          "type": "uint256[]"
        }
      ],
      "stateMutability": "view",
      "type": "function"
    },
    {
      "inputs": [],
      "name": "withdraw",
      "outputs": [],
      "stateMutability": "payable",
      "type": "function"
    }
  ],
  "bytecode": "0x60806040526040518060400160405280600581526020017f2e6a736f6e000000000000000000000000000000000000000000000000000000815250600d90805190602001906200005192919062000386565b50668e1bc9bf040000600e55612710600f5560146010556000601160006101000a81548160ff0219169083151502179055503480156200009057600080fd5b5060405162004928380380620049288339818101604052810190620000b69190620004a8565b83838160009080519060200190620000d092919062000386565b508060019080519060200190620000e992919062000386565b5050506200010c620001006200013860201b60201c565b6200014060201b60201c565b6200011d826200020660201b60201c565b6200012e81620002b160201b60201c565b505050506200071e565b600033905090565b6000600a60009054906101000a900473ffffffffffffffffffffffffffffffffffffffff16905081600a60006101000a81548173ffffffffffffffffffffffffffffffffffffffff021916908373ffffffffffffffffffffffffffffffffffffffff1602179055508173ffffffffffffffffffffffffffffffffffffffff168173ffffffffffffffffffffffffffffffffffffffff167f8be0079c531659141344cd1fd0a4f28419497f9722a3daafe3b4186f6b6457e060405160405180910390a35050565b620002166200013860201b60201c565b73ffffffffffffffffffffffffffffffffffffffff166200023c6200035c60201b60201c565b73ffffffffffffffffffffffffffffffffffffffff161462000295576040517f08c379a00000000000000000000000000000000000000000000000000000000081526004016200028c90620005ba565b60405180910390fd5b80600c9080519060200190620002ad92919062000386565b5050565b620002c16200013860201b60201c565b73ffffffffffffffffffffffffffffffffffffffff16620002e76200035c60201b60201c565b73ffffffffffffffffffffffffffffffffffffffff161462000340576040517f08c379a00000000000000000000000000000000000000000000000000000000081526004016200033790620005ba565b60405180910390fd5b80601290805190602001906200035892919062000386565b5050565b6000600a60009054906101000a900473ffffffffffffffffffffffffffffffffffffffff16905090565b82805462000394906200068a565b90600052602060002090601f016020900481019282620003b8576000855562000404565b82601f10620003d357805160ff191683800117855562000404565b8280016001018555821562000404579182015b8281111562000403578251825591602001919060010190620003e6565b5b50905062000413919062000417565b5090565b5b808211156200043257600081600090555060010162000418565b5090565b60006200044d620004478462000610565b620005dc565b9050828152602081018484840111156200046657600080fd5b6200047384828562000654565b509392505050565b600082601f8301126200048d57600080fd5b81516200049f84826020860162000436565b91505092915050565b60008060008060808587031215620004bf57600080fd5b600085015167ffffffffffffffff811115620004da57600080fd5b620004e8878288016200047b565b945050602085015167ffffffffffffffff8111156200050657600080fd5b62000514878288016200047b565b935050604085015167ffffffffffffffff8111156200053257600080fd5b62000540878288016200047b565b925050606085015167ffffffffffffffff8111156200055e57600080fd5b6200056c878288016200047b565b91505092959194509250565b60006200058760208362000643565b91507f4f776e61626c653a2063616c6c6572206973206e6f7420746865206f776e65726000830152602082019050919050565b60006020820190508181036000830152620005d58162000578565b9050919050565b6000604051905081810181811067ffffffffffffffff82111715620006065762000605620006ef565b5b8060405250919050565b600067ffffffffffffffff8211156200062e576200062d620006ef565b5b601f19601f8301169050602081019050919050565b600082825260208201905092915050565b60005b838110156200067457808201518184015260208101905062000657565b8381111562000684576000848401525b50505050565b60006002820490506001821680620006a357607f821691505b60208210811415620006ba57620006b9620006c0565b5b50919050565b7f4e487b7100000000000000000000000000000000000000000000000000000000600052602260045260246000fd5b7f4e487b7100000000000000000000000000000000000000000000000000000000600052604160045260246000fd5b6141fa806200072e6000396000f3fe6080604052600436106101f95760003560e01c806370a082311161010d578063a475b5dd116100a0578063d5abeb011161006f578063d5abeb0114610705578063da3ef23f14610730578063e985e9c514610759578063f2c4ce1e14610796578063f2fde38b146107bf576101f9565b8063a475b5dd1461065d578063b88d4fde14610674578063c66828621461069d578063c87b56dd146106c8576101f9565b80638da5cb5b116100dc5780638da5cb5b146105c257806392642744146105ed57806395d89b4114610609578063a22cb46514610634576101f9565b806370a082311461051a578063715018a614610557578063722503801461056e5780637f00c7a614610599576101f9565b80632f745c591161019057806344a0d68a1161015f57806344a0d68a146104235780634f6ccce71461044c578063518302271461048957806355f804b3146104b45780636352211e146104dd576101f9565b80632f745c59146103765780633ccfd60b146103b357806342842e0e146103bd578063438b6300146103e6576101f9565b806313faede6116101cc57806313faede6146102cc57806318160ddd146102f7578063239c70ae1461032257806323b872dd1461034d576101f9565b806301ffc9a7146101fe57806306fdde031461023b578063081812fc14610266578063095ea7b3146102a3575b600080fd5b34801561020a57600080fd5b5061022560048036038101906102209190613052565b6107e8565b6040516102329190613a5f565b60405180910390f35b34801561024757600080fd5b50610250610862565b60405161025d9190613a7a565b60405180910390f35b34801561027257600080fd5b5061028d600480360381019061028891906130e5565b6108f4565b60405161029a91906139d6565b60405180910390f35b3480156102af57600080fd5b506102ca60048036038101906102c59190613016565b610979565b005b3480156102d857600080fd5b506102e1610a91565b6040516102ee9190613cdc565b60405180910390f35b34801561030357600080fd5b5061030c610a97565b6040516103199190613cdc565b60405180910390f35b34801561032e57600080fd5b50610337610aa4565b6040516103449190613cdc565b60405180910390f35b34801561035957600080fd5b50610374600480360381019061036f9190612f10565b610aaa565b005b34801561038257600080fd5b5061039d60048036038101906103989190613016565b610b0a565b6040516103aa9190613cdc565b60405180910390f35b6103bb610baf565b005b3480156103c957600080fd5b506103e460048036038101906103df9190612f10565b610ca4565b005b3480156103f257600080fd5b5061040d60048036038101906104089190612eab565b610cc4565b60405161041a9190613a3d565b60405180910390f35b34801561042f57600080fd5b5061044a600480360381019061044591906130e5565b610dbe565b005b34801561045857600080fd5b50610473600480360381019061046e91906130e5565b610e44565b6040516104809190613cdc565b60405180910390f35b34801561049557600080fd5b5061049e610edb565b6040516104ab9190613a5f565b60405180910390f35b3480156104c057600080fd5b506104db60048036038101906104d691906130a4565b610eee565b005b3480156104e957600080fd5b5061050460048036038101906104ff91906130e5565b610f84565b60405161051191906139d6565b60405180910390f35b34801561052657600080fd5b50610541600480360381019061053c9190612eab565b611036565b60405161054e9190613cdc565b60405180910390f35b34801561056357600080fd5b5061056c6110ee565b005b34801561057a57600080fd5b50610583611176565b6040516105909190613a7a565b60405180910390f35b3480156105a557600080fd5b506105c060048036038101906105bb91906130e5565b611204565b005b3480156105ce57600080fd5b506105d761128a565b6040516105e491906139d6565b60405180910390f35b610607600480360381019061060291906130e5565b6112b4565b005b34801561061557600080fd5b5061061e611386565b60405161062b9190613a7a565b60405180910390f35b34801561064057600080fd5b5061065b60048036038101906106569190612fda565b611418565b005b34801561066957600080fd5b50610672611599565b005b34801561068057600080fd5b5061069b60048036038101906106969190612f5f565b611632565b005b3480156106a957600080fd5b506106b2611694565b6040516106bf9190613a7a565b60405180910390f35b3480156106d457600080fd5b506106ef60048036038101906106ea91906130e5565b611722565b6040516106fc9190613a7a565b60405180910390f35b34801561071157600080fd5b5061071a61187b565b6040516107279190613cdc565b60405180910390f35b34801561073c57600080fd5b50610757600480360381019061075291906130a4565b611881565b005b34801561076557600080fd5b50610780600480360381019061077b9190612ed4565b611917565b60405161078d9190613a5f565b60405180910390f35b3480156107a257600080fd5b506107bd60048036038101906107b891906130a4565b6119ab565b005b3480156107cb57600080fd5b506107e660048036038101906107e19190612eab565b611a41565b005b60007f780e9d63000000000000000000000000000000000000000000000000000000007bffffffffffffffffffffffffffffffffffffffffffffffffffffffff1916827bffffffffffffffffffffffffffffffffffffffffffffffffffffffff1916148061085b575061085a82611b39565b5b9050919050565b60606000805461087190613fef565b80601f016020809104026020016040519081016040528092919081815260200182805461089d90613fef565b80156108ea5780601f106108bf576101008083540402835291602001916108ea565b820191906000526020600020905b8154815290600101906020018083116108cd57829003601f168201915b5050505050905090565b60006108ff82611c1b565b61093e576040517f08c379a000000000000000000000000000000000000000000000000000000000815260040161093590613c1c565b60405180910390fd5b6004600083815260200190815260200160002060009054906101000a900473ffffffffffffffffffffffffffffffffffffffff169050919050565b600061098482610f84565b90508073ffffffffffffffffffffffffffffffffffffffff168373ffffffffffffffffffffffffffffffffffffffff1614156109f5576040517f08c379a00000000000000000000000000000000000000000000000000000000081526004016109ec90613c7c565b60405180910390fd5b8073ffffffffffffffffffffffffffffffffffffffff16610a14611c87565b73ffffffffffffffffffffffffffffffffffffffff161480610a435750610a4281610a3d611c87565b611917565b5b610a82576040517f08c379a0000000000000000000000000000000000000000000000000000000008152600401610a7990613b9c565b60405180910390fd5b610a8c8383611c8f565b505050565b600e5481565b6000600880549050905090565b60105481565b610abb610ab5611c87565b82611d48565b610afa576040517f08c379a0000000000000000000000000000000000000000000000000000000008152600401610af190613c9c565b60405180910390fd5b610b05838383611e26565b505050565b6000610b1583611036565b8210610b56576040517f08c379a0000000000000000000000000000000000000000000000000000000008152600401610b4d90613a9c565b60405180910390fd5b600660008473ffffffffffffffffffffffffffffffffffffffff1673ffffffffffffffffffffffffffffffffffffffff168152602001908152602001600020600083815260200190815260200160002054905092915050565b610bb7611c87565b73ffffffffffffffffffffffffffffffffffffffff16610bd561128a565b73ffffffffffffffffffffffffffffffffffffffff1614610c2b576040517f08c379a0000000000000000000000000000000000000000000000000000000008152600401610c2290613c3c565b60405180910390fd5b60003373ffffffffffffffffffffffffffffffffffffffff1647604051610c51906139c1565b60006040518083038185875af1925050503d8060008114610c8e576040519150601f19603f3d011682016040523d82523d6000602084013e610c93565b606091505b5050905080610ca157600080fd5b50565b610cbf83838360405180602001604052806000815250611632565b505050565b60606000610cd183611036565b905060008167ffffffffffffffff811115610d15577f4e487b7100000000000000000000000000000000000000000000000000000000600052604160045260246000fd5b604051908082528060200260200182016040528015610d435781602001602082028036833780820191505090505b50905060005b82811015610db357610d5b8582610b0a565b828281518110610d94577f4e487b7100000000000000000000000000000000000000000000000000000000600052603260045260246000fd5b6020026020010181815250508080610dab90614021565b915050610d49565b508092505050919050565b610dc6611c87565b73ffffffffffffffffffffffffffffffffffffffff16610de461128a565b73ffffffffffffffffffffffffffffffffffffffff1614610e3a576040517f08c379a0000000000000000000000000000000000000000000000000000000008152600401610e3190613c3c565b60405180910390fd5b80600e8190555050565b6000610e4e610a97565b8210610e8f576040517f08c379a0000000000000000000000000000000000000000000000000000000008152600401610e8690613cbc565b60405180910390fd5b60088281548110610ec9577f4e487b7100000000000000000000000000000000000000000000000000000000600052603260045260246000fd5b90600052602060002001549050919050565b601160009054906101000a900460ff1681565b610ef6611c87565b73ffffffffffffffffffffffffffffffffffffffff16610f1461128a565b73ffffffffffffffffffffffffffffffffffffffff1614610f6a576040517f08c379a0000000000000000000000000000000000000000000000000000000008152600401610f6190613c3c565b60405180910390fd5b80600c9080519060200190610f80929190612ccf565b5050565b6000806002600084815260200190815260200160002060009054906101000a900473ffffffffffffffffffffffffffffffffffffffff169050600073ffffffffffffffffffffffffffffffffffffffff168173ffffffffffffffffffffffffffffffffffffffff16141561102d576040517f08c379a000000000000000000000000000000000000000000000000000000000815260040161102490613bdc565b60405180910390fd5b80915050919050565b60008073ffffffffffffffffffffffffffffffffffffffff168273ffffffffffffffffffffffffffffffffffffffff1614156110a7576040517f08c379a000000000000000000000000000000000000000000000000000000000815260040161109e90613bbc565b60405180910390fd5b600360008373ffffffffffffffffffffffffffffffffffffffff1673ffffffffffffffffffffffffffffffffffffffff168152602001908152602001600020549050919050565b6110f6611c87565b73ffffffffffffffffffffffffffffffffffffffff1661111461128a565b73ffffffffffffffffffffffffffffffffffffffff161461116a576040517f08c379a000000000000000000000000000000000000000000000000000000000815260040161116190613c3c565b60405180910390fd5b6111746000612082565b565b6012805461118390613fef565b80601f01602080910402602001604051908101604052809291908181526020018280546111af90613fef565b80156111fc5780601f106111d1576101008083540402835291602001916111fc565b820191906000526020600020905b8154815290600101906020018083116111df57829003601f168201915b505050505081565b61120c611c87565b73ffffffffffffffffffffffffffffffffffffffff1661122a61128a565b73ffffffffffffffffffffffffffffffffffffffff1614611280576040517f08c379a000000000000000000000000000000000000000000000000000000000815260040161127790613c3c565b60405180910390fd5b8060108190555050565b6000600a60009054906101000a900473ffffffffffffffffffffffffffffffffffffffff16905090565b60006112be610a97565b9050600082116112cd57600080fd5b6010548211156112dc57600080fd5b600f5482826112eb9190613e24565b11156112f657600080fd5b6112fe61128a565b73ffffffffffffffffffffffffffffffffffffffff163373ffffffffffffffffffffffffffffffffffffffff161461134b5781600e5461133e9190613eab565b34101561134a57600080fd5b5b6000600190505b8281116113815761136e3382846113699190613e24565b612148565b808061137990614021565b915050611352565b505050565b60606001805461139590613fef565b80601f01602080910402602001604051908101604052809291908181526020018280546113c190613fef565b801561140e5780601f106113e35761010080835404028352916020019161140e565b820191906000526020600020905b8154815290600101906020018083116113f157829003601f168201915b5050505050905090565b611420611c87565b73ffffffffffffffffffffffffffffffffffffffff168273ffffffffffffffffffffffffffffffffffffffff16141561148e576040517f08c379a000000000000000000000000000000000000000000000000000000000815260040161148590613b3c565b60405180910390fd5b806005600061149b611c87565b73ffffffffffffffffffffffffffffffffffffffff1673ffffffffffffffffffffffffffffffffffffffff16815260200190815260200160002060008473ffffffffffffffffffffffffffffffffffffffff1673ffffffffffffffffffffffffffffffffffffffff16815260200190815260200160002060006101000a81548160ff0219169083151502179055508173ffffffffffffffffffffffffffffffffffffffff16611548611c87565b73ffffffffffffffffffffffffffffffffffffffff167f17307eab39ab6107e8899845ad3d59bd9653f200f220920489ca2b5937696c318360405161158d9190613a5f565b60405180910390a35050565b6115a1611c87565b73ffffffffffffffffffffffffffffffffffffffff166115bf61128a565b73ffffffffffffffffffffffffffffffffffffffff1614611615576040517f08c379a000000000000000000000000000000000000000000000000000000000815260040161160c90613c3c565b60405180910390fd5b6001601160006101000a81548160ff021916908315150217905550565b61164361163d611c87565b83611d48565b611682576040517f08c379a000000000000000000000000000000000000000000000000000000000815260040161167990613c9c565b60405180910390fd5b61168e84848484612166565b50505050565b600d80546116a190613fef565b80601f01602080910402602001604051908101604052809291908181526020018280546116cd90613fef565b801561171a5780601f106116ef5761010080835404028352916020019161171a565b820191906000526020600020905b8154815290600101906020018083116116fd57829003601f168201915b505050505081565b606061172d82611c1b565b61176c576040517f08c379a000000000000000000000000000000000000000000000000000000000815260040161176390613b7c565b60405180910390fd5b60001515601160009054906101000a900460ff161515141561181a576012805461179590613fef565b80601f01602080910402602001604051908101604052809291908181526020018280546117c190613fef565b801561180e5780601f106117e35761010080835404028352916020019161180e565b820191906000526020600020905b8154815290600101906020018083116117f157829003601f168201915b50505050509050611876565b60006118246121c2565b905060008151116118445760405180602001604052806000815250611872565b8061184e84612254565b600d60405160200161186293929190613990565b6040516020818303038152906040525b9150505b919050565b600f5481565b611889611c87565b73ffffffffffffffffffffffffffffffffffffffff166118a761128a565b73ffffffffffffffffffffffffffffffffffffffff16146118fd576040517f08c379a00000000000000000000000000000000000000000000000000000000081526004016118f490613c3c565b60405180910390fd5b80600d9080519060200190611913929190612ccf565b5050565b6000600560008473ffffffffffffffffffffffffffffffffffffffff1673ffffffffffffffffffffffffffffffffffffffff16815260200190815260200160002060008373ffffffffffffffffffffffffffffffffffffffff1673ffffffffffffffffffffffffffffffffffffffff16815260200190815260200160002060009054906101000a900460ff16905092915050565b6119b3611c87565b73ffffffffffffffffffffffffffffffffffffffff166119d161128a565b73ffffffffffffffffffffffffffffffffffffffff1614611a27576040517f08c379a0000000000000000000000000000000000000000000000000000000008152600401611a1e90613c3c565b60405180910390fd5b8060129080519060200190611a3d929190612ccf565b5050565b611a49611c87565b73ffffffffffffffffffffffffffffffffffffffff16611a6761128a565b73ffffffffffffffffffffffffffffffffffffffff1614611abd576040517f08c379a0000000000000000000000000000000000000000000000000000000008152600401611ab490613c3c565b60405180910390fd5b600073ffffffffffffffffffffffffffffffffffffffff168173ffffffffffffffffffffffffffffffffffffffff161415611b2d576040517f08c379a0000000000000000000000000000000000000000000000000000000008152600401611b2490613adc565b60405180910390fd5b611b3681612082565b50565b60007f80ac58cd000000000000000000000000000000000000000000000000000000007bffffffffffffffffffffffffffffffffffffffffffffffffffffffff1916827bffffffffffffffffffffffffffffffffffffffffffffffffffffffff19161480611c0457507f5b5e139f000000000000000000000000000000000000000000000000000000007bffffffffffffffffffffffffffffffffffffffffffffffffffffffff1916827bffffffffffffffffffffffffffffffffffffffffffffffffffffffff1916145b80611c145750611c1382612401565b5b9050919050565b60008073ffffffffffffffffffffffffffffffffffffffff166002600084815260200190815260200160002060009054906101000a900473ffffffffffffffffffffffffffffffffffffffff1673ffffffffffffffffffffffffffffffffffffffff1614159050919050565b600033905090565b816004600083815260200190815260200160002060006101000a81548173ffffffffffffffffffffffffffffffffffffffff021916908373ffffffffffffffffffffffffffffffffffffffff160217905550808273ffffffffffffffffffffffffffffffffffffffff16611d0283610f84565b73ffffffffffffffffffffffffffffffffffffffff167f8c5be1e5ebec7d5bd14f71427d1e84f3dd0314c0f7b2291e5b200ac8c7c3b92560405160405180910390a45050565b6000611d5382611c1b565b611d92576040517f08c379a0000000000000000000000000000000000000000000000000000000008152600401611d8990613b5c565b60405180910390fd5b6000611d9d83610f84565b90508073ffffffffffffffffffffffffffffffffffffffff168473ffffffffffffffffffffffffffffffffffffffff161480611e0c57508373ffffffffffffffffffffffffffffffffffffffff16611df4846108f4565b73ffffffffffffffffffffffffffffffffffffffff16145b80611e1d5750611e1c8185611917565b5b91505092915050565b8273ffffffffffffffffffffffffffffffffffffffff16611e4682610f84565b73ffffffffffffffffffffffffffffffffffffffff1614611e9c576040517f08c379a0000000000000000000000000000000000000000000000000000000008152600401611e9390613c5c565b60405180910390fd5b600073ffffffffffffffffffffffffffffffffffffffff168273ffffffffffffffffffffffffffffffffffffffff161415611f0c576040517f08c379a0000000000000000000000000000000000000000000000000000000008152600401611f0390613b1c565b60405180910390fd5b611f1783838361246b565b611f22600082611c8f565b6001600360008573ffffffffffffffffffffffffffffffffffffffff1673ffffffffffffffffffffffffffffffffffffffff1681526020019081526020016000206000828254611f729190613f05565b925050819055506001600360008473ffffffffffffffffffffffffffffffffffffffff1673ffffffffffffffffffffffffffffffffffffffff1681526020019081526020016000206000828254611fc99190613e24565b92505081905550816002600083815260200190815260200160002060006101000a81548173ffffffffffffffffffffffffffffffffffffffff021916908373ffffffffffffffffffffffffffffffffffffffff160217905550808273ffffffffffffffffffffffffffffffffffffffff168473ffffffffffffffffffffffffffffffffffffffff167fddf252ad1be2c89b69c2b068fc378daa952ba7f163c4a11628f55a4df523b3ef60405160405180910390a4505050565b6000600a60009054906101000a900473ffffffffffffffffffffffffffffffffffffffff16905081600a60006101000a81548173ffffffffffffffffffffffffffffffffffffffff021916908373ffffffffffffffffffffffffffffffffffffffff1602179055508173ffffffffffffffffffffffffffffffffffffffff168173ffffffffffffffffffffffffffffffffffffffff167f8be0079c531659141344cd1fd0a4f28419497f9722a3daafe3b4186f6b6457e060405160405180910390a35050565b61216282826040518060200160405280600081525061257f565b5050565b612171848484611e26565b61217d848484846125da565b6121bc576040517f08c379a00000000000000000000000000000000000000000000000000000000081526004016121b390613abc565b60405180910390fd5b50505050565b6060600c80546121d190613fef565b80601f01602080910402602001604051908101604052809291908181526020018280546121fd90613fef565b801561224a5780601f1061221f5761010080835404028352916020019161224a565b820191906000526020600020905b81548152906001019060200180831161222d57829003601f168201915b5050505050905090565b6060600082141561229c576040518060400160405280600181526020017f300000000000000000000000000000000000000000000000000000000000000081525090506123fc565b600082905060005b600082146122ce5780806122b790614021565b915050600a826122c79190613e7a565b91506122a4565b60008167ffffffffffffffff811115612310577f4e487b7100000000000000000000000000000000000000000000000000000000600052604160045260246000fd5b6040519080825280601f01601f1916602001820160405280156123425781602001600182028036833780820191505090505b5090505b600085146123f55760018261235b9190613f05565b9150600a8561236a919061406a565b60306123769190613e24565b60f81b8183815181106123b2577f4e487b7100000000000000000000000000000000000000000000000000000000600052603260045260246000fd5b60200101907effffffffffffffffffffffffffffffffffffffffffffffffffffffffffffff1916908160001a905350600a856123ee9190613e7a565b9450612346565b8093505050505b919050565b60007f01ffc9a7000000000000000000000000000000000000000000000000000000007bffffffffffffffffffffffffffffffffffffffffffffffffffffffff1916827bffffffffffffffffffffffffffffffffffffffffffffffffffffffff1916149050919050565b612476838383612771565b600073ffffffffffffffffffffffffffffffffffffffff168373ffffffffffffffffffffffffffffffffffffffff1614156124b9576124b481612776565b6124f8565b8173ffffffffffffffffffffffffffffffffffffffff168373ffffffffffffffffffffffffffffffffffffffff16146124f7576124f683826127bf565b5b5b600073ffffffffffffffffffffffffffffffffffffffff168273ffffffffffffffffffffffffffffffffffffffff16141561253b576125368161292c565b61257a565b8273ffffffffffffffffffffffffffffffffffffffff168273ffffffffffffffffffffffffffffffffffffffff1614612579576125788282612a6f565b5b5b505050565b6125898383612aee565b61259660008484846125da565b6125d5576040517f08c379a00000000000000000000000000000000000000000000000000000000081526004016125cc90613abc565b60405180910390fd5b505050565b60006125fb8473ffffffffffffffffffffffffffffffffffffffff16612cbc565b15612764578373ffffffffffffffffffffffffffffffffffffffff1663150b7a02612624611c87565b8786866040518563ffffffff1660e01b815260040161264694939291906139f1565b602060405180830381600087803b15801561266057600080fd5b505af192505050801561269157506040513d601f19601f8201168201806040525081019061268e919061307b565b60015b612714573d80600081146126c1576040519150601f19603f3d011682016040523d82523d6000602084013e6126c6565b606091505b5060008151141561270c576040517f08c379a000000000000000000000000000000000000000000000000000000000815260040161270390613abc565b60405180910390fd5b805181602001fd5b63150b7a0260e01b7bffffffffffffffffffffffffffffffffffffffffffffffffffffffff1916817bffffffffffffffffffffffffffffffffffffffffffffffffffffffff191614915050612769565b600190505b949350505050565b505050565b6008805490506009600083815260200190815260200160002081905550600881908060018154018082558091505060019003906000526020600020016000909190919091505550565b600060016127cc84611036565b6127d69190613f05565b90506000600760008481526020019081526020016000205490508181146128bb576000600660008673ffffffffffffffffffffffffffffffffffffffff1673ffffffffffffffffffffffffffffffffffffffff168152602001908152602001600020600084815260200190815260200160002054905080600660008773ffffffffffffffffffffffffffffffffffffffff1673ffffffffffffffffffffffffffffffffffffffff168152602001908152602001600020600084815260200190815260200160002081905550816007600083815260200190815260200160002081905550505b6007600084815260200190815260200160002060009055600660008573ffffffffffffffffffffffffffffffffffffffff1673ffffffffffffffffffffffffffffffffffffffff16815260200190815260200160002060008381526020019081526020016000206000905550505050565b600060016008805490506129409190613f05565b9050600060096000848152602001908152602001600020549050600060088381548110612996577f4e487b7100000000000000000000000000000000000000000000000000000000600052603260045260246000fd5b9060005260206000200154905080600883815481106129de577f4e487b7100000000000000000000000000000000000000000000000000000000600052603260045260246000fd5b906000526020600020018190555081600960008381526020019081526020016000208190555060096000858152602001908152602001600020600090556008805480612a53577f4e487b7100000000000000000000000000000000000000000000000000000000600052603160045260246000fd5b6001900381819060005260206000200160009055905550505050565b6000612a7a83611036565b905081600660008573ffffffffffffffffffffffffffffffffffffffff1673ffffffffffffffffffffffffffffffffffffffff168152602001908152602001600020600083815260200190815260200160002081905550806007600084815260200190815260200160002081905550505050565b600073ffffffffffffffffffffffffffffffffffffffff168273ffffffffffffffffffffffffffffffffffffffff161415612b5e576040517f08c379a0000000000000000000000000000000000000000000000000000000008152600401612b5590613bfc565b60405180910390fd5b612b6781611c1b565b15612ba7576040517f08c379a0000000000000000000000000000000000000000000000000000000008152600401612b9e90613afc565b60405180910390fd5b612bb36000838361246b565b6001600360008473ffffffffffffffffffffffffffffffffffffffff1673ffffffffffffffffffffffffffffffffffffffff1681526020019081526020016000206000828254612c039190613e24565b92505081905550816002600083815260200190815260200160002060006101000a81548173ffffffffffffffffffffffffffffffffffffffff021916908373ffffffffffffffffffffffffffffffffffffffff160217905550808273ffffffffffffffffffffffffffffffffffffffff16600073ffffffffffffffffffffffffffffffffffffffff167fddf252ad1be2c89b69c2b068fc378daa952ba7f163c4a11628f55a4df523b3ef60405160405180910390a45050565b600080823b905060008111915050919050565b828054612cdb90613fef565b90600052602060002090601f016020900481019282612cfd5760008555612d44565b82601f10612d1657805160ff1916838001178555612d44565b82800160010185558215612d44579182015b82811115612d43578251825591602001919060010190612d28565b5b509050612d519190612d55565b5090565b5b80821115612d6e576000816000905550600101612d56565b5090565b6000612d85612d8084613d28565b613cf7565b905082815260208101848484011115612d9d57600080fd5b612da8848285613fad565b509392505050565b6000612dc3612dbe84613d58565b613cf7565b905082815260208101848484011115612ddb57600080fd5b612de6848285613fad565b509392505050565b600081359050612dfd81614168565b92915050565b600081359050612e128161417f565b92915050565b600081359050612e2781614196565b92915050565b600081519050612e3c81614196565b92915050565b600082601f830112612e5357600080fd5b8135612e63848260208601612d72565b91505092915050565b600082601f830112612e7d57600080fd5b8135612e8d848260208601612db0565b91505092915050565b600081359050612ea5816141ad565b92915050565b600060208284031215612ebd57600080fd5b6000612ecb84828501612dee565b91505092915050565b60008060408385031215612ee757600080fd5b6000612ef585828601612dee565b9250506020612f0685828601612dee565b9150509250929050565b600080600060608486031215612f2557600080fd5b6000612f3386828701612dee565b9350506020612f4486828701612dee565b9250506040612f5586828701612e96565b9150509250925092565b60008060008060808587031215612f7557600080fd5b6000612f8387828801612dee565b9450506020612f9487828801612dee565b9350506040612fa587828801612e96565b925050606085013567ffffffffffffffff811115612fc257600080fd5b612fce87828801612e42565b91505092959194509250565b60008060408385031215612fed57600080fd5b6000612ffb85828601612dee565b925050602061300c85828601612e03565b9150509250929050565b6000806040838503121561302957600080fd5b600061303785828601612dee565b925050602061304885828601612e96565b9150509250929050565b60006020828403121561306457600080fd5b600061307284828501612e18565b91505092915050565b60006020828403121561308d57600080fd5b600061309b84828501612e2d565b91505092915050565b6000602082840312156130b657600080fd5b600082013567ffffffffffffffff8111156130d057600080fd5b6130dc84828501612e6c565b91505092915050565b6000602082840312156130f757600080fd5b600061310584828501612e96565b91505092915050565b600061311a8383613972565b60208301905092915050565b61312f81613f39565b82525050565b600061314082613dad565b61314a8185613ddb565b935061315583613d88565b8060005b8381101561318657815161316d888261310e565b975061317883613dce565b925050600181019050613159565b5085935050505092915050565b61319c81613f4b565b82525050565b60006131ad82613db8565b6131b78185613dec565b93506131c7818560208601613fbc565b6131d081614157565b840191505092915050565b60006131e682613dc3565b6131f08185613e08565b9350613200818560208601613fbc565b61320981614157565b840191505092915050565b600061321f82613dc3565b6132298185613e19565b9350613239818560208601613fbc565b80840191505092915050565b6000815461325281613fef565b61325c8186613e19565b945060018216600081146132775760018114613288576132bb565b60ff198316865281860193506132bb565b61329185613d98565b60005b838110156132b357815481890152600182019150602081019050613294565b838801955050505b50505092915050565b60006132d1602b83613e08565b91507f455243373231456e756d657261626c653a206f776e657220696e646578206f7560008301527f74206f6620626f756e64730000000000000000000000000000000000000000006020830152604082019050919050565b6000613337603283613e08565b91507f4552433732313a207472616e7366657220746f206e6f6e20455243373231526560008301527f63656976657220696d706c656d656e74657200000000000000000000000000006020830152604082019050919050565b600061339d602683613e08565b91507f4f776e61626c653a206e6577206f776e657220697320746865207a65726f206160008301527f64647265737300000000000000000000000000000000000000000000000000006020830152604082019050919050565b6000613403601c83613e08565b91507f4552433732313a20746f6b656e20616c7265616479206d696e746564000000006000830152602082019050919050565b6000613443602483613e08565b91507f4552433732313a207472616e7366657220746f20746865207a65726f2061646460008301527f72657373000000000000000000000000000000000000000000000000000000006020830152604082019050919050565b60006134a9601983613e08565b91507f4552433732313a20617070726f766520746f2063616c6c6572000000000000006000830152602082019050919050565b60006134e9602c83613e08565b91507f4552433732313a206f70657261746f7220717565727920666f72206e6f6e657860008301527f697374656e7420746f6b656e00000000000000000000000000000000000000006020830152604082019050919050565b600061354f602f83613e08565b91507f4552433732314d657461646174613a2055524920717565727920666972206e6f60008301527f6e6578697374656e7420746f6b656e00000000000000000000000000000000006020830152604082019050919050565b60006135b5603883613e08565b91507f4552433732313a20617070726f76652063616c6c6572206973206e6f74206f7760008301527f6e6572206e6f7220617070726f76656420666f7220616c6c00000000000000006020830152604082019050919050565b600061361b602a83613e08565b91507f4552433732313a2062616c616e636520717565727920666f7220746865207a6560008301527f726f2061646472657373000000000000000000000000000000000000000000006020830152604082019050919050565b6000613681602983613e08565b91507f4552433732313a206f776e657220717565727920666f72206e6f6e657869737460008301527f656e7420746f6b656e00000000000000000000000000000000000000000000006020830152604082019050919050565b60006136e7602083613e08565b91507f4552433732313a206d696e7420746f20746865207a65726f20616464726573736000830152602082019050919050565b6000613727602c83613e08565b91507f4552433732313a20617070726f76656420717565727920666f72206e6f6e657860008301527f697374656e7420746f6b656e00000000000000000000000000000000000000006020830152604082019050919050565b600061378d602083613e08565b91507f4f776e61626c653a2063616c6c6572206973206e6f7420746865206f776e65726000830152602082019050919050565b60006137cd602983613e08565b91507f4552433732313a207472616e73666572206f6620746f6b656e2074686174206960008301527f73206e6f74206f776e00000000000000000000000000000000000000000000006020830152604082019050919050565b6000613833602183613e08565b91507f4552433732313a20617070726f76616c20746f2063757272656e74206f776e6560008301527f72000000000000000000000000000000000000000000000000000000000000006020830152604082019050919050565b6000613899600083613dfd565b9150600082019050919050565b60006138b3603183613e08565b91507f4552433732313a207472616e736665722063616c6c6572206973206e6f74206f60008301527f776e6572206e6f7220617070726f7665640000000000000000000000000000006020830152604082019050919050565b6000613919602c83613e08565b91507f455243373231456e756d657261626c653a20676c6f62616c20696e646578206f60008301527f7574206f6620626f756e647300000000000000000000000000000000000000006020830152604082019050919050565b61397b81613fa3565b82525050565b61398a81613fa3565b82525050565b600061399c8286613214565b91506139a88285613214565b91506139b48284613245565b9150819050949350505050565b60006139cc8261388c565b9150819050919050565b60006020820190506139eb6000830184613126565b92915050565b6000608082019050613a066000830187613126565b613a136020830186613126565b613a206040830185613981565b8181036060830152613a3281846131a2565b905095945050505050565b60006020820190508181036000830152613a578184613135565b905092915050565b6000602082019050613a746000830184613193565b92915050565b60006020820190508181036000830152613a9481846131db565b905092915050565b60006020820190508181036000830152613ab5816132c4565b9050919050565b60006020820190508181036000830152613ad58161332a565b9050919050565b60006020820190508181036000830152613af581613390565b9050919050565b60006020820190508181036000830152613b15816133f6565b9050919050565b60006020820190508181036000830152613b3581613436565b9050919050565b60006020820190508181036000830152613b558161349c565b9050919050565b60006020820190508181036000830152613b75816134dc565b9050919050565b60006020820190508181036000830152613b9581613542565b9050919050565b60006020820190508181036000830152613bb5816135a8565b9050919050565b60006020820190508181036000830152613bd58161360e565b9050919050565b60006020820190508181036000830152613bf581613674565b9050919050565b60006020820190508181036000830152613c15816136da565b9050919050565b60006020820190508181036000830152613c358161371a565b9050919050565b60006020820190508181036000830152613c5581613780565b9050919050565b60006020820190508181036000830152613c75816137c0565b9050919050565b60006020820190508181036000830152613c9581613826565b9050919050565b60006020820190508181036000830152613cb5816138a6565b9050919050565b60006020820190508181036000830152613cd58161390c565b9050919050565b6000602082019050613cf16000830184613981565b92915050565b6000604051905081810181811067ffffffffffffffff82111715613d1e57613d1d614128565b5b8060405250919050565b600067ffffffffffffffff821115613d4357613d42614128565b5b601f19601f8301169050602081019050919050565b600067ffffffffffffffff821115613d7357613d72614128565b5b601f19601f8301169050602081019050919050565b6000819050602082019050919050565b60008190508160005260206000209050919050565b600081519050919050565b600081519050919050565b600081519050919050565b6000602082019050919050565b600082825260208201905092915050565b600082825260208201905092915050565b600081905092915050565b600082825260208201905092915050565b600081905092915050565b6000613e2f82613fa3565b9150613e3a83613fa3565b9250827fffffffffffffffffffffffffffffffffffffffffffffffffffffffffffffffff03821115613e6f57613e6e61409b565b5b828201905092915050565b6000613e8582613fa3565b9150613e9083613fa3565b925082613ea057613e9f6140ca565b5b828204905092915050565b6000613eb682613fa3565b9150613ec183613fa3565b9250817fffffffffffffffffffffffffffffffffffffffffffffffffffffffffffffffff0483118215151615613efa57613ef961409b565b5b828202905092915050565b6000613f1082613fa3565b9150613f1b83613fa3565b925082821015613f2e57613f2d61409b565b5b828203905092915050565b6000613f4482613f83565b9050919050565b60008115159050919050565b60007fffffffff0000000000000000000000000000000000000000000000000000000082169050919050565b600073ffffffffffffffffffffffffffffffffffffffff82169050919050565b6000819050919050565b82818337600083830152505050565b60005b83811015613fda578082015181840152602081019050613fbf565b83811115613fe9576000848401525b50505050565b6000600282049050600182168061400757607f821691505b6020821081141561401b5761401a6140f9565b5b50919050565b600061402c82613fa3565b91507fffffffffffffffffffffffffffffffffffffffffffffffffffffffffffffffff82141561405f5761405e61409b565b5b600182019050919050565b600061407582613fa3565b915061408083613fa3565b9250826140905761408f6140ca565b5b828206905092915050565b7f4e487b7100000000000000000000000000000000000000000000000000000000600052601160045260246000fd5b7f4e487b7100000000000000000000000000000000000000000000000000000000600052601260045260246000fd5b7f4e487b7100000000000000000000000000000000000000000000000000000000600052602260045260246000fd5b7f4e487b7100000000000000000000000000000000000000000000000000000000600052604160045260246000fd5b6000601f19601f8301169050919050565b61417181613f39565b811461417c57600080fd5b50565b61418881613f4b565b811461419357600080fd5b50565b61419f81613f57565b81146141aa57600080fd5b50565b6141b681613fa3565b81146141c157600080fd5b5056fea26469706673582212203df6ad917e4615d45a573b1b84f613f18f7e78b17efc09779f0e17b1a6eef19a64736f6c63430008000033",
  "linkReferences": {},
  "deployedLinkReferences": {}
}